:1003A8000209000020200F000100020003000A00DB
:1003B8000400050006000B000700080009000C00F7
:1003C8000F00000010000D104C0109010800020088
:0903D80008FFFFFFFFFFFFFF011A
:04042D007F147E00BA
:10043100EF1FAC0670011E4C600A7D027CEFDCFEF2
:04044100DDFC80EC72
:010445002294
:0604C8001204580204A218
:0D048800E5476006E4F5477F01227F002272
:0D049500E5456006E4F5457F01227F002269
:0304D400AF422212
:0304D700AF402211
:03000300020006F2
:10000600C0E0C0F0C083C082C0D075D000C000C0C0
:1000160001C002C003C004C005C006C007E50870E1
:100026000CFFFE12044D7F011204CE8042E50864E7
:100036000170421204AD120446D3E50C94C8E50BD8
:1000460094324010E50C94B0E50B943650067508D2
:1000560002020129D3E50C94FEE50B94294010E534
:100066000C94E6E50B942D500675450102012175A9
:100076000801020129E5086402600302012912044D
:10008600AD120446D3E50C946CE50B9402402CE5C6
:100096000C9454E50B94065022E546131313541F93
:1000A6002448F8C000E6FFE5465407FE7401A8069A
:1000B600088002C333D8FCF45F8034D3E50C94D6B1
:1000C600E50B94064030E50C94BEE50B940A5026E9
:1000D600E546131313541F2448F8C000E6FFE5460F
:1000E6005407FE7401A806088002C333D8FC4FD01B
:1000F60000F605468006754600750801E546C39478
:10010600204020754600E549F4B5480FE54BF4B5A7
:100116004A09854842854A40754701E4FF1204CEE4
:10012600750800D007D006D005D004D003D002D081
:0E01360001D000D0D0D082D083D0F0D0E03203
:100458005389F0438901E4F58AF58CC28DC28C2258
:070446008E0B8F0CE4FFFE9A
:0B044D00AD07AC068C8CAF058F8A2237
:0904AD00AF8CEFFEAD8AEDFF22D9
:0604CE00EF24FF928C22D6
:0B04A200D288C289D2A8D2AFD2B82203
:10014400E4FB7590FFC29320970E7F14FE120431D6
:100154003097FD12042D7B0120960B12042D30964E
:10016400FD12042D7B0520950B12042D3095FD12F4
:10017400042D7B0920940B12042D3094FD12042DC0
:100184007B0D7590FFC29220970B12042D3097FDC2
:1001940012042D7B0220960B12042D3096FD1204BE
:1001A4002D7B0620950B12042D3095FD12042D7B1A
:1001B4000A20940B12042D3094FD12042D7B0E752D
:1001C40090FFC29120970B12042D3097FD12042D3D
:1001D4007B0320960B12042D3096FD12042D7B0711
:1001E40020950B12042D3095FD12042D7B0B2094C9
:1001F4000B12042D3094FD12042D7B0F7590FFC259
:100204009020970B12042D3097FD12042D7B0420AF
:10021400960B12042D3096FD12042D7B0820950BAD
:1002240012042D3095FD12042D7B0C20940B120426
:0B0234002D3094FD12042D7B10AF0351
:01023F00229C
:0804B6007F027EEFDEFEDFFC99
:0104BE00221B
:0804BF007F047EE1DEFEDFFC9C
:0104C7002212
:10036D007F017E00E4FDFC744C2DF8E6FB74302D0E
:10037D00F8E66B600EC3ED9407EC64809480500337
:10038D00E4FEFF0DBD00010CED64104C70D9E50AC3
:0A039D00640845096004E4FEFF2235
:0103A7002233
:0F046800E4FDD2B71204BFC2B70DBD0AF5D2A092
:010477002262
:0F047800E4FDD2B71204B6C2B70DBD0AF5C2A09B
:010487002252
:100240001201448F44E54470030202E0D2A37F64AC
:100250007E00120431C2A3E54425E0240DF8E6FE39
:1002600008E6FFC3EE648094804027D3EF9409EE44
:1002700064809480501CC3E50A9410E5096480945E
:1002800080500F7430250AF8A607050AE50A7002A7
:100290000509E544640F702E12036DEF4E6013C222
:1002A000A11204687FB87E0B120431120478D2A127
:1002B000800FC2A1D2A27FD07E07120431C2A2D287
:1002C000A1E4F509F50AE544B40D15D3E50A940057
:1002D000E509648094804008E50A150A7002150952
:0102E00022FB
:1003E200120488EF7006120495EF6024C2A1120471
:1003F200D48F431204D78F41E541B4160612046824
:10040200E4F541E541B40D06120478E4F541D2A1C8
:0104120022C7
:10041300C2A0C2A1C2A2C2A3C2B71204C812047866
:0A042300D2A11202401203E280F899
:030000000202E118
:0C02E100787FE4F6D8FD75815B020328ED
:1002ED00020413E493A3F8E493A34003F68001F210
:1002FD0008DFF48029E493A3F85407240CC8C33312
:10030D00C4540F4420C8834004F456800146F6DFE0
:10031D00E4800B01020408102040809003A8E47EC5
:10032D00019360BCA3FF543F30E509541FFEE493D5
:10033D00A360010ECF54C025E060A840B8E493A39C
:10034D00FAE493A3F8E493A3C8C582C8CAC583CAC7
:10035D00F0A3C8C582C8CAC583CADFE9DEE780BE7F
:0103E100001B
:00000001FF
